{
  "_format": "hh-sol-artifact-1",
  "contractName": "IDO",
  "sourceName": "contracts/IDO.sol",
  "abi": [
    {
      "inputs": [
        {
          "internalType": "uint256",
          "name": "_tokenPrice",
          "type": "uint256"
        },
        {
          "internalType": "contract ERC20",
          "name": "_rewardToken",
          "type": "address"
        },
        {
          "internalType": "uint256",
          "name": "_finishTimestamp",
          "type": "uint256"
        },
        {
          "internalType": "uint256",
          "name": "_minEthPayment",
          "type": "uint256"
        },
        {
          "internalType": "uint256",
          "name": "_maxEthPayment",
          "type": "uint256"
        },
        {
          "internalType": "uint256",
          "name": "_maxDistributedTokenAmount",
          "type": "uint256"
        }
      ],
      "name": "createIDO",
      "outputs": [],
      "stateMutability": "nonpayable",
      "type": "function"
    }
  ],
  "bytecode": "0x608060405234801561001057600080fd5b50612503806100206000396000f3fe60806040523480156200001157600080fd5b50600436106200002e5760003560e01c80630bd22b6a1462000033575b600080fd5b6200005160048036038101906200004b9190620000e5565b62000053565b005b60008686428742888888336040516200006c90620000a9565b6200008099989796959493929190620001ae565b604051809103906000f0801580156200009d573d6000803e3d6000fd5b50905050505050505050565b6121d280620002fc83390190565b600081359050620000c881620002c7565b92915050565b600081359050620000df81620002e1565b92915050565b60008060008060008060c08789031215620000ff57600080fd5b60006200010f89828a01620000ce565b96505060206200012289828a01620000b7565b95505060406200013589828a01620000ce565b94505060606200014889828a01620000ce565b93505060806200015b89828a01620000ce565b92505060a06200016e89828a01620000ce565b9150509295509295509295565b62000186816200024d565b82525050565b62000197816200029f565b82525050565b620001a88162000295565b82525050565b600061012082019050620001c6600083018c6200019d565b620001d5602083018b6200018c565b620001e4604083018a6200019d565b620001f360608301896200019d565b6200020260808301886200019d565b6200021160a08301876200019d565b6200022060c08301866200019d565b6200022f60e08301856200019d565b6200023f6101008301846200017b565b9a9950505050505050505050565b60006200025a8262000275565b9050919050565b60006200026e826200024d565b9050919050565b600073ffffffffffffffffffffffffffffffffffffffff82169050919050565b6000819050919050565b6000620002ac82620002b3565b9050919050565b6000620002c08262000275565b9050919050565b620002d28162000261565b8114620002de57600080fd5b50565b620002ec8162000295565b8114620002f857600080fd5b5056fe60806040523480156200001157600080fd5b50604051620021d2380380620021d283398181016040528101906200003791906200048e565b620000576200004b6200022760201b60201c565b6200022f60201b60201c565b600180819055508860028190555087600360006101000a81548173ffffffffffffffffffffffffffffffffffffffff021916908373ffffffffffffffffffffffffffffffffffffffff160217905550600360009054906101000a900473ffffffffffffffffffffffffffffffffffffffff1673ffffffffffffffffffffffffffffffffffffffff1663313ce5676040518163ffffffff1660e01b815260040160206040518083038186803b1580156200010f57600080fd5b505afa15801562000124573d6000803e3d6000fd5b505050506040513d601f19601f820116820180604052508101906200014a919062000567565b60ff166004819055506200016481620002f360201b60201c565b858710620001a9576040517f08c379a0000000000000000000000000000000000000000000000000000000008152600401620001a09062000651565b60405180910390fd5b428611620001ee576040517f08c379a0000000000000000000000000000000000000000000000000000000008152600401620001e59062000673565b60405180910390fd5b866005819055508560068190555084600781905550836008819055508260098190555081600a81905550505050505050505050620008a5565b600033905090565b60008060009054906101000a900473ffffffffffffffffffffffffffffffffffffffff169050816000806101000a81548173ffffffffffffffffffffffffffffffffffffffff021916908373ffffffffffffffffffffffffffffffffffffffff1602179055508173ffffffffffffffffffffffffffffffffffffffff168173ffffffffffffffffffffffffffffffffffffffff167f8be0079c531659141344cd1fd0a4f28419497f9722a3daafe3b4186f6b6457e060405160405180910390a35050565b620003036200022760201b60201c565b73ffffffffffffffffffffffffffffffffffffffff16620003296200040960201b60201c565b73ffffffffffffffffffffffffffffffffffffffff161462000382576040517f08c379a0000000000000000000000000000000000000000000000000000000008152600401620003799062000695565b60405180910390fd5b600073ffffffffffffffffffffffffffffffffffffffff168173ffffffffffffffffffffffffffffffffffffffff161415620003f5576040517f08c379a0000000000000000000000000000000000000000000000000000000008152600401620003ec906200062f565b60405180910390fd5b62000406816200022f60201b60201c565b50565b60008060009054906101000a900473ffffffffffffffffffffffffffffffffffffffff16905090565b60008151905062000443816200083d565b92915050565b6000815190506200045a8162000857565b92915050565b600081519050620004718162000871565b92915050565b60008151905062000488816200088b565b92915050565b60008060008060008060008060006101208a8c031215620004ae57600080fd5b6000620004be8c828d0162000460565b9950506020620004d18c828d0162000449565b9850506040620004e48c828d0162000460565b9750506060620004f78c828d0162000460565b96505060806200050a8c828d0162000460565b95505060a06200051d8c828d0162000460565b94505060c0620005308c828d0162000460565b93505060e0620005438c828d0162000460565b925050610100620005578c828d0162000432565b9150509295985092959850929598565b6000602082840312156200057a57600080fd5b60006200058a8482850162000477565b91505092915050565b6000620005a2602683620006b7565b9150620005af8262000727565b604082019050919050565b6000620005c9603283620006b7565b9150620005d68262000776565b604082019050919050565b6000620005f0603083620006b7565b9150620005fd82620007c5565b604082019050919050565b600062000617602083620006b7565b9150620006248262000814565b602082019050919050565b600060208201905081810360008301526200064a8162000593565b9050919050565b600060208201905081810360008301526200066c81620005ba565b9050919050565b600060208201905081810360008301526200068e81620005e1565b9050919050565b60006020820190508181036000830152620006b08162000608565b9050919050565b600082825260208201905092915050565b6000620006d582620006f0565b9050919050565b6000620006e982620006c8565b9050919050565b600073ffffffffffffffffffffffffffffffffffffffff82169050919050565b6000819050919050565b600060ff82169050919050565b7f4f776e61626c653a206e6577206f776e657220697320746865207a65726f206160008201527f6464726573730000000000000000000000000000000000000000000000000000602082015250565b7f53746172742074696d657374616d70206d757374206265206c6573732074686160008201527f6e2066696e6973682074696d657374616d700000000000000000000000000000602082015250565b7f46696e6973682074696d657374616d70206d757374206265206d6f726520746860008201527f616e2063757272656e7420626c6f636b00000000000000000000000000000000602082015250565b7f4f776e61626c653a2063616c6c6572206973206e6f7420746865206f776e6572600082015250565b6200084881620006c8565b81146200085457600080fd5b50565b6200086281620006dc565b81146200086e57600080fd5b50565b6200087c8162000710565b81146200088857600080fd5b50565b62000896816200071a565b8114620008a257600080fd5b50565b61191d80620008b56000396000f3fe6080604052600436106101145760003560e01c8063715018a6116100a0578063ddeae03311610064578063ddeae0331461032a578063e0ee43a214610353578063e6fd48bc1461037e578063f2fde38b146103a9578063f7c618c1146103d257610114565b8063715018a61461027b5780637ff9b596146102925780638da5cb5b146102bd578063c6a0e27d146102e8578063d1e5587e146102ff57610114565b80634b1a4c0c116100e75780634b1a4c0c146101b85780634e71d92d146101e3578063586360ce146101fa5780635b857a1b146102255780636644cc2b1461025057610114565b80631959a002146101195780631b9265b814610158578063313ce5671461016257806343d7d3211461018d575b600080fd5b34801561012557600080fd5b50610140600480360381019061013b9190610f2e565b6103fd565b60405161014f93929190611317565b60405180910390f35b610160610427565b005b34801561016e57600080fd5b5061017761070a565b60405161018491906112d3565b60405180910390f35b34801561019957600080fd5b506101a2610710565b6040516101af91906112d3565b60405180910390f35b3480156101c457600080fd5b506101cd610716565b6040516101da91906112d3565b60405180910390f35b3480156101ef57600080fd5b506101f861071c565b005b34801561020657600080fd5b5061020f610727565b60405161021c91906112d3565b60405180910390f35b34801561023157600080fd5b5061023a61072d565b60405161024791906112d3565b60405180910390f35b34801561025c57600080fd5b50610265610733565b60405161027291906112d3565b60405180910390f35b34801561028757600080fd5b50610290610739565b005b34801561029e57600080fd5b506102a76107c1565b6040516102b491906112d3565b60405180910390f35b3480156102c957600080fd5b506102d26107c7565b6040516102df9190611134565b60405180910390f35b3480156102f457600080fd5b506102fd6107f0565b005b34801561030b57600080fd5b50610314610a3a565b60405161032191906112d3565b60405180910390f35b34801561033657600080fd5b50610351600480360381019061034c9190610f2e565b610a40565b005b34801561035f57600080fd5b50610368610a4c565b60405161037591906112d3565b60405180910390f35b34801561038a57600080fd5b50610393610a52565b6040516103a091906112d3565b60405180910390f35b3480156103b557600080fd5b506103d060048036038101906103cb9190610f2e565b610a58565b005b3480156103de57600080fd5b506103e7610b50565b6040516103f49190611178565b60405180910390f35b600d6020528060005260406000206000915090508060000154908060010154908060020154905083565b60085434101561046c576040517f08c379a000000000000000000000000000000000000000000000000000000000815260040161046390611233565b60405180910390fd5b6009543411156104b1576040517f08c379a00000000000000000000000000000000000000000000000000000000081526004016104a8906111f3565b60405180910390fd5b6005544210156104f6576040517f08c379a00000000000000000000000000000000000000000000000000000000081526004016104ed90611193565b60405180910390fd5b600654421061053a576040517f08c379a0000000000000000000000000000000000000000000000000000000008152600401610531906111d3565b60405180910390fd5b600061054534610b76565b9050600a5461055f82600b54610bb490919063ffffffff16565b11156105a0576040517f08c379a000000000000000000000000000000000000000000000000000000000815260040161059790611253565b60405180910390fd5b6000600d60003373ffffffffffffffffffffffffffffffffffffffff1673ffffffffffffffffffffffffffffffffffffffff16815260200190815260200160002090506009546105fd348360020154610bb490919063ffffffff16565b111561063e576040517f08c379a0000000000000000000000000000000000000000000000000000000008152600401610635906111f3565b60405180910390fd5b61065382600b54610bb490919063ffffffff16565b600b81905550610670348260020154610bb490919063ffffffff16565b816002018190555061068f828260010154610bb490919063ffffffff16565b81600101819055506106ae828260000154610bb490919063ffffffff16565b81600001819055503373ffffffffffffffffffffffffffffffffffffffff167fb55d4ca2fc644ca3f8cdc9c907826e24acd68d2b2d4d73f48b8f2378dbaedf5d34846040516106fe9291906112ee565b60405180910390a25050565b60045481565b60065481565b600b5481565b61072533610bca565b565b600c5481565b60095481565b60085481565b610741610de1565b73ffffffffffffffffffffffffffffffffffffffff1661075f6107c7565b73ffffffffffffffffffffffffffffffffffffffff16146107b5576040517f08c379a00000000000000000000000000000000000000000000000000000000081526004016107ac90611273565b60405180910390fd5b6107bf6000610de9565b565b60025481565b60008060009054906101000a900473ffffffffffffffffffffffffffffffffffffffff16905090565b6107f8610de1565b73ffffffffffffffffffffffffffffffffffffffff166108166107c7565b73ffffffffffffffffffffffffffffffffffffffff161461086c576040517f08c379a000000000000000000000000000000000000000000000000000000000815260040161086390611273565b60405180910390fd5b60065442116108b0576040517f08c379a00000000000000000000000000000000000000000000000000000000081526004016108a790611293565b60405180910390fd5b6000600360009054906101000a900473ffffffffffffffffffffffffffffffffffffffff1673ffffffffffffffffffffffffffffffffffffffff166370a08231306040518263ffffffff1660e01b815260040161090d9190611134565b60206040518083038186803b15801561092557600080fd5b505afa158015610939573d6000803e3d6000fd5b505050506040513d601f19601f8201168201806040525081019061095d9190610f80565b9050600360009054906101000a900473ffffffffffffffffffffffffffffffffffffffff1673ffffffffffffffffffffffffffffffffffffffff1663a9059cbb336109c7600b546109b9600c5487610bb490919063ffffffff16565b610ead90919063ffffffff16565b6040518363ffffffff1660e01b81526004016109e492919061114f565b602060405180830381600087803b1580156109fe57600080fd5b505af1158015610a12573d6000803e3d6000fd5b505050506040513d601f19601f82011682018060405250810190610a369190610f57565b5050565b60075481565b610a4981610bca565b50565b600a5481565b60055481565b610a60610de1565b73ffffffffffffffffffffffffffffffffffffffff16610a7e6107c7565b73ffffffffffffffffffffffffffffffffffffffff1614610ad4576040517f08c379a0000000000000000000000000000000000000000000000000000000008152600401610acb90611273565b60405180910390fd5b600073ffffffffffffffffffffffffffffffffffffffff168173ffffffffffffffffffffffffffffffffffffffff161415610b44576040517f08c379a0000000000000000000000000000000000000000000000000000000008152600401610b3b906111b3565b60405180910390fd5b610b4d81610de9565b50565b600360009054906101000a900473ffffffffffffffffffffffffffffffffffffffff1681565b6000610bad600254610b9f600454600a610b909190611439565b85610ec390919063ffffffff16565b610ed990919063ffffffff16565b9050919050565b60008183610bc2919061135f565b905092915050565b60026001541415610c10576040517f08c379a0000000000000000000000000000000000000000000000000000000008152600401610c07906112b3565b60405180910390fd5b60026001819055506007544211610c5c576040517f08c379a0000000000000000000000000000000000000000000000000000000008152600401610c5390611213565b60405180910390fd5b6000600d60008373ffffffffffffffffffffffffffffffffffffffff1673ffffffffffffffffffffffffffffffffffffffff16815260200190815260200160002090506000816000015490506000811115610dd55760008260000181905550610cd081600c54610bb490919063ffffffff16565b600c81905550600360009054906101000a900473ffffffffffffffffffffffffffffffffffffffff1673ffffffffffffffffffffffffffffffffffffffff1663a9059cbb84836040518363ffffffff1660e01b8152600401610d3392919061114f565b602060405180830381600087803b158015610d4d57600080fd5b505af1158015610d61573d6000803e3d6000fd5b505050506040513d601f19601f82011682018060405250810190610d859190610f57565b508273ffffffffffffffffffffffffffffffffffffffff167f6352c5382c4a4578e712449ca65e83cdb392d045dfcf1cad9615189db2da244b82604051610dcc91906112d3565b60405180910390a25b50506001808190555050565b600033905090565b60008060009054906101000a900473ffffffffffffffffffffffffffffffffffffffff169050816000806101000a81548173ffffffffffffffffffffffffffffffffffffffff021916908373ffffffffffffffffffffffffffffffffffffffff1602179055508173ffffffffffffffffffffffffffffffffffffffff168173ffffffffffffffffffffffffffffffffffffffff167f8be0079c531659141344cd1fd0a4f28419497f9722a3daafe3b4186f6b6457e060405160405180910390a35050565b60008183610ebb91906115b1565b905092915050565b60008183610ed19190611557565b905092915050565b60008183610ee791906113b5565b905092915050565b600081359050610efe816118a2565b92915050565b600081519050610f13816118b9565b92915050565b600081519050610f28816118d0565b92915050565b600060208284031215610f4057600080fd5b6000610f4e84828501610eef565b91505092915050565b600060208284031215610f6957600080fd5b6000610f7784828501610f04565b91505092915050565b600060208284031215610f9257600080fd5b6000610fa084828501610f19565b91505092915050565b610fb2816115e5565b82525050565b610fc18161162d565b82525050565b6000610fd4600b8361134e565b9150610fdf826116bc565b602082019050919050565b6000610ff760268361134e565b9150611002826116e5565b604082019050919050565b600061101a60058361134e565b915061102582611734565b602082019050919050565b600061103d60148361134e565b91506110488261175d565b602082019050919050565b600061106060188361134e565b915061106b82611786565b602082019050919050565b600061108360148361134e565b915061108e826117af565b602082019050919050565b60006110a6600a8361134e565b91506110b1826117d8565b602082019050919050565b60006110c960208361134e565b91506110d482611801565b602082019050919050565b60006110ec60268361134e565b91506110f78261182a565b604082019050919050565b600061110f601f8361134e565b915061111a82611879565b602082019050919050565b61112e81611623565b82525050565b60006020820190506111496000830184610fa9565b92915050565b60006040820190506111646000830185610fa9565b6111716020830184611125565b9392505050565b600060208201905061118d6000830184610fb8565b92915050565b600060208201905081810360008301526111ac81610fc7565b9050919050565b600060208201905081810360008301526111cc81610fea565b9050919050565b600060208201905081810360008301526111ec8161100d565b9050919050565b6000602082019050818103600083015261120c81611030565b9050919050565b6000602082019050818103600083015261122c81611053565b9050919050565b6000602082019050818103600083015261124c81611076565b9050919050565b6000602082019050818103600083015261126c81611099565b9050919050565b6000602082019050818103600083015261128c816110bc565b9050919050565b600060208201905081810360008301526112ac816110df565b9050919050565b600060208201905081810360008301526112cc81611102565b9050919050565b60006020820190506112e86000830184611125565b92915050565b60006040820190506113036000830185611125565b6113106020830184611125565b9392505050565b600060608201905061132c6000830186611125565b6113396020830185611125565b6113466040830184611125565b949350505050565b600082825260208201905092915050565b600061136a82611623565b915061137583611623565b9250827fffffffffffffffffffffffffffffffffffffffffffffffffffffffffffffffff038211156113aa576113a9611651565b5b828201905092915050565b60006113c082611623565b91506113cb83611623565b9250826113db576113da611680565b5b828204905092915050565b6000808291508390505b60018511156114305780860481111561140c5761140b611651565b5b600185161561141b5780820291505b8081029050611429856116af565b94506113f0565b94509492505050565b600061144482611623565b915061144f83611623565b925061147c7fffffffffffffffffffffffffffffffffffffffffffffffffffffffffffffffff8484611484565b905092915050565b6000826114945760019050611550565b816114a25760009050611550565b81600181146114b857600281146114c2576114f1565b6001915050611550565b60ff8411156114d4576114d3611651565b5b8360020a9150848211156114eb576114ea611651565b5b50611550565b5060208310610133831016604e8410600b84101617156115265782820a90508381111561152157611520611651565b5b611550565b61153384848460016113e6565b9250905081840481111561154a57611549611651565b5b81810290505b9392505050565b600061156282611623565b915061156d83611623565b9250817fffffffffffffffffffffffffffffffffffffffffffffffffffffffffffffffff04831182151516156115a6576115a5611651565b5b828202905092915050565b60006115bc82611623565b91506115c783611623565b9250828210156115da576115d9611651565b5b828203905092915050565b60006115f082611603565b9050919050565b60008115159050919050565b600073ffffffffffffffffffffffffffffffffffffffff82169050919050565b6000819050919050565b60006116388261163f565b9050919050565b600061164a82611603565b9050919050565b7f4e487b7100000000000000000000000000000000000000000000000000000000600052601160045260246000fd5b7f4e487b7100000000000000000000000000000000000000000000000000000000600052601260045260246000fd5b60008160011c9050919050565b7f4e6f742073746172746564000000000000000000000000000000000000000000600082015250565b7f4f776e61626c653a206e6577206f776e657220697320746865207a65726f206160008201527f6464726573730000000000000000000000000000000000000000000000000000602082015250565b7f456e646564000000000000000000000000000000000000000000000000000000600082015250565b7f4d6f7265207468656e206d617820616d6f756e74000000000000000000000000600082015250565b7f446973747269627574696f6e206e6f7420737461727465640000000000000000600082015250565b7f4c657373207468656e206d696e20616d6f756e74000000000000000000000000600082015250565b7f4f76657266696c6c656400000000000000000000000000000000000000000000600082015250565b7f4f776e61626c653a2063616c6c6572206973206e6f7420746865206f776e6572600082015250565b7f576974686472617720616c6c6f7765642061667465722073746f70206163636560008201527f7074204554480000000000000000000000000000000000000000000000000000602082015250565b7f5265656e7472616e637947756172643a207265656e7472616e742063616c6c00600082015250565b6118ab816115e5565b81146118b657600080fd5b50565b6118c2816115f7565b81146118cd57600080fd5b50565b6118d981611623565b81146118e457600080fd5b5056fea2646970667358221220f0686aa78a6953ca8f4a4549a9f570253a99d62f63298b7cff6a321cc55ccd3b64736f6c63430008040033a2646970667358221220543eb0f3be1490102209b2208edde021eb31827a479c6ec44782d40aeb5f60c164736f6c63430008040033",
  "linkReferences": {},
  "deployedLinkReferences": {}
}